S00E00004C61624144432E737265633F
S11300000C9434000C9451000C9451000C94510045
S11300100C94D1000C9451000C9451000C94510098
S11300200C9451000C9451000C9451000C94510008
S11300300C9451000C9417010C9451000C94510031
S11300400C9451000C9451000C9451000C945100E8
S11300500C9451000C94F1000C9451000C94510038
S11300600C9451000C94510011241FBECFEFD8E022
S1130070DEBFCDBF11E0A0E0B1E0E2E7F2E002C0F4
S113008005900D92A031B107D9F721E0A0E1B1E0CC
S113009001C01D92A231B207E1F70E9496000C94B0
S11300A037010C940000ECE7F0E010828081866652
S11300B08083EAE7F0E01082808188608083808119
S11300C0876080838081806880830895E1E8F0E020
S11300D08081856080838BEC93EF9093850080937F
S11300E08400EFE6F0E08081816080830895F894D5
S11300F08FE084B98FEF8AB987B18C7F87B988B1D3
S1130100836088B91BB815B81092C100ECE6F0E022
S1130110808183608083E8E6F0E080818260808370
S11301200E9453000E946600789408950E9477000C
S113013085B1816085B9E0911101EF70F0E0E05084
S1130140FF4F80818BB98FE19EE40197F1F700C0E6
S1130150000085B18E7F85B985B1826085B9E09153
S11301601101E295EF70F0E0E050FF4F80818BB910
S11301708FE19EE40197F1F700C0000085B18D7F07
S113018085B985B1846085B9809110018BB98FE1FF
S11301909EE40197F1F700C0000085B18B7F85B91B
S11301A0C7CF1F920F920FB60F9211248F9386B16F
S11301B0813031F4809110018F5F8093100108C069
S11301C086B1823029F4809110018150809310010E
S11301D08BB382608BBB8F910F900FBE0F901F90DB
S11301E018951F920F920FB60F9211248F939F931D
S11301F0EF93FF9380917900809311019091100106
S1130200891720F085B1886085B903C085B1877FDF
S113021085B9EAE7F0E0808180618083FF91EF9106
S11302209F918F910F900FBE0F901F9018951F9262
S11302300F920FB60F9211248F939F93EF93FF9316
S1130240EAE7F0E08081806480838BEC93EF909305
S113025085008093840086B3816086BBFF91EF9113
S11302609F918F910F900FBE0F901F901895F89447
S1050270FFCFBA
S11302723F065B4F666D7D077F67777C395E7971D8
S9030000FC
