:100000000C9434000C9446000C9446000C9446006A
:100010000C9466000C9446000C9446000C94460028
:100020000C9446000C9446000C9446000C94460038
:100030000C9446000C9446000C9446000C94460028
:100040000C9446000C9446000C9446000C94460018
:100050000C9446000C9446000C9446000C94460008
:100060000C9446000C94460011241FBECFEFD8E03C
:10007000DEBFCDBF21E0A0E0B1E001C01D92A13004
:10008000B207E1F70E9460000C9486000C94000017
:10009000F8948FEF8AB987B1836087B988B183609C
:1000A00088B91BB81092C100ECE6F0E08081836053
:1000B0008083E8E6F0E08081826080837894089510
:1000C0000E944800809100018BB9FCCF1F920F92D3
:1000D0000FB60F9211248F9386B1813031F4809145
:1000E00000018F5F8093000108C086B1823029F43F
:1000F000809100018150809300018BB382608BBBA3
:100100008F910F900FBE0F901F901895F894FFCF0E
:00000001FF
